{
  "_format": "hh-sol-artifact-1",
  "contractName": "CertificateIssuer",
  "sourceName": "contracts/CertificateIssuer.sol",
  "abi": [
    {
      "inputs": [],
      "stateMutability": "nonpayable",
      "type": "constructor"
    },
    {
      "anonymous": false,
      "inputs": [
        {
          "indexed": true,
          "internalType": "address",
          "name": "owner",
          "type": "address"
        },
        {
          "indexed": true,
          "internalType": "address",
          "name": "approved",
          "type": "address"
        },
        {
          "indexed": true,
          "internalType": "uint256",
          "name": "tokenId",
          "type": "uint256"
        }
      ],
      "name": "Approval",
      "type": "event"
    },
    {
      "anonymous": false,
      "inputs": [
        {
          "indexed": true,
          "internalType": "address",
          "name": "owner",
          "type": "address"
        },
        {
          "indexed": true,
          "internalType": "address",
          "name": "operator",
          "type": "address"
        },
        {
          "indexed": false,
          "internalType": "bool",
          "name": "approved",
          "type": "bool"
        }
      ],
      "name": "ApprovalForAll",
      "type": "event"
    },
    {
      "anonymous": false,
      "inputs": [
        {
          "indexed": false,
          "internalType": "uint256",
          "name": "_fromTokenId",
          "type": "uint256"
        },
        {
          "indexed": false,
          "internalType": "uint256",
          "name": "_toTokenId",
          "type": "uint256"
        }
      ],
      "name": "BatchMetadataUpdate",
      "type": "event"
    },
    {
      "anonymous": false,
      "inputs": [
        {
          "indexed": true,
          "internalType": "uint256",
          "name": "certificateId",
          "type": "uint256"
        },
        {
          "indexed": true,
          "internalType": "address",
          "name": "recipient",
          "type": "address"
        },
        {
          "indexed": false,
          "internalType": "string",
          "name": "studentName",
          "type": "string"
        },
        {
          "indexed": false,
          "internalType": "string",
          "name": "courseName",
          "type": "string"
        },
        {
          "indexed": false,
          "internalType": "string",
          "name": "ipfsHash",
          "type": "string"
        }
      ],
      "name": "CertificateIssued",
      "type": "event"
    },
    {
      "anonymous": false,
      "inputs": [
        {
          "indexed": true,
          "internalType": "uint256",
          "name": "certificateId",
          "type": "uint256"
        }
      ],
      "name": "CertificateRevoked",
      "type": "event"
    },
    {
      "anonymous": false,
      "inputs": [
        {
          "indexed": false,
          "internalType": "uint256",
          "name": "_tokenId",
          "type": "uint256"
        }
      ],
      "name": "MetadataUpdate",
      "type": "event"
    },
    {
      "anonymous": false,
      "inputs": [
        {
          "indexed": true,
          "internalType": "address",
          "name": "previousOwner",
          "type": "address"
        },
        {
          "indexed": true,
          "internalType": "address",
          "name": "newOwner",
          "type": "address"
        }
      ],
      "name": "OwnershipTransferred",
      "type": "event"
    },
    {
      "anonymous": false,
      "inputs": [
        {
          "indexed": true,
          "internalType": "address",
          "name": "from",
          "type": "address"
        },
        {
          "indexed": true,
          "internalType": "address",
          "name": "to",
          "type": "address"
        },
        {
          "indexed": true,
          "internalType": "uint256",
          "name": "tokenId",
          "type": "uint256"
        }
      ],
      "name": "Transfer",
      "type": "event"
    },
    {
      "inputs": [
        {
          "internalType": "address",
          "name": "to",
          "type": "address"
        },
        {
          "internalType": "uint256",
          "name": "tokenId",
          "type": "uint256"
        }
      ],
      "name": "approve",
      "outputs": [],
      "stateMutability": "nonpayable",
      "type": "function"
    },
    {
      "inputs": [
        {
          "internalType": "address",
          "name": "owner",
          "type": "address"
        }
      ],
      "name": "balanceOf",
      "outputs": [
        {
          "internalType": "uint256",
          "name": "",
          "type": "uint256"
        }
      ],
      "stateMutability": "view",
      "type": "function"
    },
    {
      "inputs": [
        {
          "internalType": "uint256",
          "name": "",
          "type": "uint256"
        }
      ],
      "name": "certificates",
      "outputs": [
        {
          "internalType": "uint256",
          "name": "id",
          "type": "uint256"
        },
        {
          "internalType": "string",
          "name": "studentName",
          "type": "string"
        },
        {
          "internalType": "string",
          "name": "courseName",
          "type": "string"
        },
        {
          "internalType": "string",
          "name": "ipfsHash",
          "type": "string"
        },
        {
          "internalType": "uint256",
          "name": "issuedAt",
          "type": "uint256"
        },
        {
          "internalType": "bool",
          "name": "valid",
          "type": "bool"
        }
      ],
      "stateMutability": "view",
      "type": "function"
    },
    {
      "inputs": [
        {
          "internalType": "uint256",
          "name": "tokenId",
          "type": "uint256"
        }
      ],
      "name": "getApproved",
      "outputs": [
        {
          "internalType": "address",
          "name": "",
          "type": "address"
        }
      ],
      "stateMutability": "view",
      "type": "function"
    },
    {
      "inputs": [
        {
          "internalType": "address",
          "name": "owner",
          "type": "address"
        },
        {
          "internalType": "address",
          "name": "operator",
          "type": "address"
        }
      ],
      "name": "isApprovedForAll",
      "outputs": [
        {
          "internalType": "bool",
          "name": "",
          "type": "bool"
        }
      ],
      "stateMutability": "view",
      "type": "function"
    },
    {
      "inputs": [
        {
          "internalType": "address",
          "name": "recipient",
          "type": "address"
        },
        {
          "internalType": "string",
          "name": "studentName",
          "type": "string"
        },
        {
          "internalType": "string",
          "name": "courseName",
          "type": "string"
        },
        {
          "internalType": "string",
          "name": "ipfsHash",
          "type": "string"
        }
      ],
      "name": "issueCertificate",
      "outputs": [
        {
          "internalType": "uint256",
          "name": "",
          "type": "uint256"
        }
      ],
      "stateMutability": "nonpayable",
      "type": "function"
    },
    {
      "inputs": [],
      "name": "name",
      "outputs": [
        {
          "internalType": "string",
          "name": "",
          "type": "string"
        }
      ],
      "stateMutability": "view",
      "type": "function"
    },
    {
      "inputs": [],
      "name": "owner",
      "outputs": [
        {
          "internalType": "address",
          "name": "",
          "type": "address"
        }
      ],
      "stateMutability": "view",
      "type": "function"
    },
    {
      "inputs": [
        {
          "internalType": "uint256",
          "name": "tokenId",
          "type": "uint256"
        }
      ],
      "name": "ownerOf",
      "outputs": [
        {
          "internalType": "address",
          "name": "",
          "type": "address"
        }
      ],
      "stateMutability": "view",
      "type": "function"
    },
    {
      "inputs": [],
      "name": "renounceOwnership",
      "outputs": [],
      "stateMutability": "nonpayable",
      "type": "function"
    },
    {
      "inputs": [
        {
          "internalType": "uint256",
          "name": "certificateId",
          "type": "uint256"
        }
      ],
      "name": "revokeCertificate",
      "outputs": [],
      "stateMutability": "nonpayable",
      "type": "function"
    },
    {
      "inputs": [
        {
          "internalType": "address",
          "name": "from",
          "type": "address"
        },
        {
          "internalType": "address",
          "name": "to",
          "type": "address"
        },
        {
          "internalType": "uint256",
          "name": "tokenId",
          "type": "uint256"
        }
      ],
      "name": "safeTransferFrom",
      "outputs": [],
      "stateMutability": "nonpayable",
      "type": "function"
    },
    {
      "inputs": [
        {
          "internalType": "address",
          "name": "from",
          "type": "address"
        },
        {
          "internalType": "address",
          "name": "to",
          "type": "address"
        },
        {
          "internalType": "uint256",
          "name": "tokenId",
          "type": "uint256"
        },
        {
          "internalType": "bytes",
          "name": "data",
          "type": "bytes"
        }
      ],
      "name": "safeTransferFrom",
      "outputs": [],
      "stateMutability": "nonpayable",
      "type": "function"
    },
    {
      "inputs": [
        {
          "internalType": "address",
          "name": "operator",
          "type": "address"
        },
        {
          "internalType": "bool",
          "name": "approved",
          "type": "bool"
        }
      ],
      "name": "setApprovalForAll",
      "outputs": [],
      "stateMutability": "nonpayable",
      "type": "function"
    },
    {
      "inputs": [
        {
          "internalType": "bytes4",
          "name": "interfaceId",
          "type": "bytes4"
        }
      ],
      "name": "supportsInterface",
      "outputs": [
        {
          "internalType": "bool",
          "name": "",
          "type": "bool"
        }
      ],
      "stateMutability": "view",
      "type": "function"
    },
    {
      "inputs": [],
      "name": "symbol",
      "outputs": [
        {
          "internalType": "string",
          "name": "",
          "type": "string"
        }
      ],
      "stateMutability": "view",
      "type": "function"
    },
    {
      "inputs": [
        {
          "internalType": "uint256",
          "name": "tokenId",
          "type": "uint256"
        }
      ],
      "name": "tokenURI",
      "outputs": [
        {
          "internalType": "string",
          "name": "",
          "type": "string"
        }
      ],
      "stateMutability": "view",
      "type": "function"
    },
    {
      "inputs": [
        {
          "internalType": "address",
          "name": "from",
          "type": "address"
        },
        {
          "internalType": "address",
          "name": "to",
          "type": "address"
        },
        {
          "internalType": "uint256",
          "name": "tokenId",
          "type": "uint256"
        }
      ],
      "name": "transferFrom",
      "outputs": [],
      "stateMutability": "nonpayable",
      "type": "function"
    },
    {
      "inputs": [
        {
          "internalType": "address",
          "name": "newOwner",
          "type": "address"
        }
      ],
      "name": "transferOwnership",
      "outputs": [],
      "stateMutability": "nonpayable",
      "type": "function"
    },
    {
      "inputs": [
        {
          "internalType": "uint256",
          "name": "certificateId",
          "type": "uint256"
        }
      ],
      "name": "verifyCertificate",
      "outputs": [
        {
          "components": [
            {
              "internalType": "uint256",
              "name": "id",
              "type": "uint256"
            },
            {
              "internalType": "string",
              "name": "studentName",
              "type": "string"
            },
            {
              "internalType": "string",
              "name": "courseName",
              "type": "string"
            },
            {
              "internalType": "string",
              "name": "ipfsHash",
              "type": "string"
            },
            {
              "internalType": "uint256",
              "name": "issuedAt",
              "type": "uint256"
            },
            {
              "internalType": "bool",
              "name": "valid",
              "type": "bool"
            }
          ],
          "internalType": "struct CertificateIssuer.Certificate",
          "name": "",
          "type": "tuple"
        }
      ],
      "stateMutability": "view",
      "type": "function"
    }
  ],
  "bytecode": "0x608060405234801561001057600080fd5b506040518060400160405280601581526020017f426c6f636b636861696e436572746966696361746500000000000000000000008152506040518060400160405280600581526020017f4243455254000000000000000000000000000000000000000000000000000000815250816000908161008c91906103de565b50806001908161009c91906103de565b5050506100bb6100b06100c060201b60201c565b6100c860201b60201c565b6104b0565b600033905090565b6000600760009054906101000a900473ffffffffffffffffffffffffffffffffffffffff16905081600760006101000a81548173ffffffffffffffffffffffffffffffffffffffff021916908373ffffffffffffffffffffffffffffffffffffffff1602179055508173ffffffffffffffffffffffffffffffffffffffff168173ffffffffffffffffffffffffffffffffffffffff167f8be0079c531659141344cd1fd0a4f28419497f9722a3daafe3b4186f6b6457e060405160405180910390a35050565b600081519050919050565b7f4e487b7100000000000000000000000000000000000000000000000000000000600052604160045260246000fd5b7f4e487b7100000000000000000000000000000000000000000000000000000000600052602260045260246000fd5b6000600282049050600182168061020f57607f821691505b602082108103610222576102216101c8565b5b50919050565b60008190508160005260206000209050919050565b60006020601f8301049050919050565b600082821b905092915050565b60006008830261028a7fffffffffffffffffffffffffffffffffffffffffffffffffffffffffffffffff8261024d565b610294868361024d565b95508019841693508086168417925050509392505050565b6000819050919050565b6000819050919050565b60006102db6102d66102d1846102ac565b6102b6565b6102ac565b9050919050565b6000819050919050565b6102f5836102c0565b610309610301826102e2565b84845461025a565b825550505050565b600090565b61031e610311565b6103298184846102ec565b505050565b5b8181101561034d57610342600082610316565b60018101905061032f565b5050565b601f8211156103925761036381610228565b61036c8461023d565b8101602085101561037b578190505b61038f6103878561023d565b83018261032e565b50505b505050565b600082821c905092915050565b60006103b560001984600802610397565b1980831691505092915050565b60006103ce83836103a4565b9150826002028217905092915050565b6103e78261018e565b67ffffffffffffffff811115610400576103ff610199565b5b61040a82546101f7565b610415828285610351565b600060209050601f8311600181146104485760008415610436578287015190505b61044085826103c2565b8655506104a8565b601f19841661045686610228565b60005b8281101561047e57848901518255600182019150602085019450602081019050610459565b8683101561049b5784890151610497601f8916826103a4565b8355505b6001600288020188555050505b505050505050565b6138fc806104bf6000396000f3fe608060405234801561001057600080fd5b506004361061012c5760003560e01c806370a08231116100ad578063a22cb46511610071578063a22cb4651461035a578063b88d4fde14610376578063c87b56dd14610392578063e985e9c5146103c2578063f2fde38b146103f25761012c565b806370a08231146102b4578063715018a6146102e45780638da5cb5b146102ee5780638eb933ac1461030c57806395d89b411461033c5761012c565b80631692a942116100f45780631692a942146101e757806323b872dd1461021757806342842e0e146102335780636352211e1461024f578063663b3e221461027f5761012c565b806301ffc9a71461013157806306f5497e1461016157806306fdde031461017d578063081812fc1461019b578063095ea7b3146101cb575b600080fd5b61014b6004803603810190610146919061235c565b61040e565b60405161015891906123a4565b60405180910390f35b61017b600480360381019061017691906123f5565b61046f565b005b610185610581565b60405161019291906124b2565b60405180910390f35b6101b560048036038101906101b091906123f5565b610613565b6040516101c29190612515565b60405180910390f35b6101e560048036038101906101e0919061255c565b610659565b005b61020160048036038101906101fc91906123f5565b610770565b60405161020e919061269b565b60405180910390f35b610231600480360381019061022c91906126bd565b6109ca565b005b61024d600480360381019061024891906126bd565b610a2a565b005b610269600480360381019061026491906123f5565b610a4a565b6040516102769190612515565b60405180910390f35b610299600480360381019061029491906123f5565b610ad0565b6040516102ab9695949392919061271f565b60405180910390f35b6102ce60048036038101906102c99190612795565b610cb1565b6040516102db91906127c2565b60405180910390f35b6102ec610d68565b005b6102f6610d7c565b6040516103039190612515565b60405180910390f35b61032660048036038101906103219190612912565b610da6565b60405161033391906127c2565b60405180910390f35b610344610efe565b60405161035191906124b2565b60405180910390f35b610374600480360381019061036f91906129f9565b610f90565b005b610390600480360381019061038b9190612ada565b610fa6565b005b6103ac60048036038101906103a791906123f5565b611008565b6040516103b991906124b2565b60405180910390f35b6103dc60048036038101906103d79190612b5d565b61111a565b6040516103e991906123a4565b60405180910390f35b61040c60048036038101906104079190612795565b6111ae565b005b6000634906490660e01b7bffffffffffffffffffffffffffffffffffffffffffffffffffffffff1916827bffffffffffffffffffffffffffffffffffffffffffffffffffffffff19161480610468575061046782611231565b5b9050919050565b610477611313565b61048081611391565b6104bf576040517f08c379a00000000000000000000000000000000000000000000000000000000081526004016104b690612be9565b60405180910390fd5b6009600082815260200190815260200160002060050160009054906101000a900460ff16610522576040517f08c379a000000000000000000000000000000000000000000000000000000000815260040161051990612c55565b60405180910390fd5b60006009600083815260200190815260200160002060050160006101000a81548160ff021916908315150217905550807fefa6c5f47ac2523bb4db18032377bf7fdce0fa9d86eddcae1ca9bba38be615d760405160405180910390a250565b60606000805461059090612ca4565b80601f01602080910402602001604051908101604052809291908181526020018280546105bc90612ca4565b80156106095780601f106105de57610100808354040283529160200191610609565b820191906000526020600020905b8154815290600101906020018083116105ec57829003601f168201915b5050505050905090565b600061061e826113d2565b6004600083815260200190815260200160002060009054906101000a900473ffffffffffffffffffffffffffffffffffffffff169050919050565b600061066482610a4a565b90508073ffffffffffffffffffffffffffffffffffffffff168373ffffffffffffffffffffffffffffffffffffffff16036106d4576040517f08c379a00000000000000000000000000000000000000000000000000000000081526004016106cb90612d47565b60405180910390fd5b8073ffffffffffffffffffffffffffffffffffffffff166106f361141d565b73ffffffffffffffffffffffffffffffffffffffff16148061072257506107218161071c61141d565b61111a565b5b610761576040517f08c379a000000000000000000000000000000000000000000000000000000000815260040161075890612dd9565b60405180910390fd5b61076b8383611425565b505050565b6107786122b8565b61078182611391565b6107c0576040517f08c379a00000000000000000000000000000000000000000000000000000000081526004016107b790612be9565b60405180910390fd5b600960008381526020019081526020016000206040518060c0016040529081600082015481526020016001820180546107f890612ca4565b80601f016020809104026020016040519081016040528092919081815260200182805461082490612ca4565b80156108715780601f1061084657610100808354040283529160200191610871565b820191906000526020600020905b81548152906001019060200180831161085457829003601f168201915b5050505050815260200160028201805461088a90612ca4565b80601f01602080910402602001604051908101604052809291908181526020018280546108b690612ca4565b80156109035780601f106108d857610100808354040283529160200191610903565b820191906000526020600020905b8154815290600101906020018083116108e657829003601f168201915b5050505050815260200160038201805461091c90612ca4565b80601f016020809104026020016040519081016040528092919081815260200182805461094890612ca4565b80156109955780601f1061096a57610100808354040283529160200191610995565b820191906000526020600020905b81548152906001019060200180831161097857829003601f168201915b50505050508152602001600482015481526020016005820160009054906101000a900460ff1615151515815250509050919050565b6109db6109d561141d565b826114de565b610a1a576040517f08c379a0000000000000000000000000000000000000000000000000000000008152600401610a1190612e6b565b60405180910390fd5b610a25838383611573565b505050565b610a4583838360405180602001604052806000815250610fa6565b505050565b600080610a568361186c565b9050600073ffffffffffffffffffffffffffffffffffffffff168173ffffffffffffffffffffffffffffffffffffffff1603610ac7576040517f08c379a0000000000000000000000000000000000000000000000000000000008152600401610abe90612ed7565b60405180910390fd5b80915050919050565b6009602052806000526040600020600091509050806000015490806001018054610af990612ca4565b80601f0160208091040260200160405190810160405280929190818152602001828054610b2590612ca4565b8015610b725780601f10610b4757610100808354040283529160200191610b72565b820191906000526020600020905b815481529060010190602001808311610b5557829003601f168201915b505050505090806002018054610b8790612ca4565b80601f0160208091040260200160405190810160405280929190818152602001828054610bb390612ca4565b8015610c005780601f10610bd557610100808354040283529160200191610c00565b820191906000526020600020905b815481529060010190602001808311610be357829003601f168201915b505050505090806003018054610c1590612ca4565b80601f0160208091040260200160405190810160405280929190818152602001828054610c4190612ca4565b8015610c8e5780601f10610c6357610100808354040283529160200191610c8e565b820191906000526020600020905b815481529060010190602001808311610c7157829003601f168201915b5050505050908060040154908060050160009054906101000a900460ff16905086565b60008073ffffffffffffffffffffffffffffffffffffffff168273ffffffffffffffffffffffffffffffffffffffff1603610d21576040517f08c379a0000000000000000000000000000000000000000000000000000000008152600401610d1890612f69565b60405180910390fd5b600360008373ffffffffffffffffffffffffffffffffffffffff1673ffffffffffffffffffffffffffffffffffffffff168152602001908152602001600020549050919050565b610d70611313565b610d7a60006118a9565b565b6000600760009054906101000a900473ffffffffffffffffffffffffffffffffffffffff16905090565b6000610db0611313565b60086000815480929190610dc390612fb8565b919050555060006008549050610dd9868261196f565b610de38184611b8c565b6040518060c001604052808281526020018681526020018581526020018481526020014281526020016001151581525060096000838152602001908152602001600020600082015181600001556020820151816001019081610e4591906131ac565b506040820151816002019081610e5b91906131ac565b506060820151816003019081610e7191906131ac565b506080820151816004015560a08201518160050160006101000a81548160ff0219169083151502179055509050508573ffffffffffffffffffffffffffffffffffffffff16817f5e6f8d0e0c69367b877ce8a6320e7e57e120bebb1ccf1b4b5a7443ee2e0559b4878787604051610eea9392919061327e565b60405180910390a380915050949350505050565b606060018054610f0d90612ca4565b80601f0160208091040260200160405190810160405280929190818152602001828054610f3990612ca4565b8015610f865780601f10610f5b57610100808354040283529160200191610f86565b820191906000526020600020905b815481529060010190602001808311610f6957829003601f168201915b5050505050905090565b610fa2610f9b61141d565b8383611c30565b5050565b610fb7610fb161141d565b836114de565b610ff6576040517f08c379a0000000000000000000000000000000000000000000000000000000008152600401610fed90612e6b565b60405180910390fd5b61100284848484611d9c565b50505050565b6060611013826113d2565b600060066000848152602001908152602001600020805461103390612ca4565b80601f016020809104026020016040519081016040528092919081815260200182805461105f90612ca4565b80156110ac5780601f10611081576101008083540402835291602001916110ac565b820191906000526020600020905b81548152906001019060200180831161108f57829003601f168201915b5050505050905060006110bd611df8565b905060008151036110d2578192505050611115565b6000825111156111075780826040516020016110ef929190613306565b60405160208183030381529060405292505050611115565b61111084611e0f565b925050505b919050565b6000600560008473ffffffffffffffffffffffffffffffffffffffff1673ffffffffffffffffffffffffffffffffffffffff16815260200190815260200160002060008373ffffffffffffffffffffffffffffffffffffffff1673ffffffffffffffffffffffffffffffffffffffff16815260200190815260200160002060009054906101000a900460ff16905092915050565b6111b6611313565b600073ffffffffffffffffffffffffffffffffffffffff168173ffffffffffffffffffffffffffffffffffffffff1603611225576040517f08c379a000000000000000000000000000000000000000000000000000000000815260040161121c9061339c565b60405180910390fd5b61122e816118a9565b50565b60007f80ac58cd000000000000000000000000000000000000000000000000000000007bffffffffffffffffffffffffffffffffffffffffffffffffffffffff1916827bffffffffffffffffffffffffffffffffffffffffffffffffffffffff191614806112fc57507f5b5e139f000000000000000000000000000000000000000000000000000000007bffffffffffffffffffffffffffffffffffffffffffffffffffffffff1916827bffffffffffffffffffffffffffffffffffffffffffffffffffffffff1916145b8061130c575061130b82611e77565b5b9050919050565b61131b61141d565b73ffffffffffffffffffffffffffffffffffffffff16611339610d7c565b73ffffffffffffffffffffffffffffffffffffffff161461138f576040517f08c379a000000000000000000000000000000000000000000000000000000000815260040161138690613408565b60405180910390fd5b565b60008073ffffffffffffffffffffffffffffffffffffffff166113b38361186c565b73ffffffffffffffffffffffffffffffffffffffff1614159050919050565b6113db81611391565b61141a576040517f08c379a000000000000000000000000000000000000000000000000000000000815260040161141190612ed7565b60405180910390fd5b50565b600033905090565b816004600083815260200190815260200160002060006101000a81548173ffffffffffffffffffffffffffffffffffffffff021916908373ffffffffffffffffffffffffffffffffffffffff160217905550808273ffffffffffffffffffffffffffffffffffffffff1661149883610a4a565b73ffffffffffffffffffffffffffffffffffffffff167f8c5be1e5ebec7d5bd14f71427d1e84f3dd0314c0f7b2291e5b200ac8c7c3b92560405160405180910390a45050565b6000806114ea83610a4a565b90508073ffffffffffffffffffffffffffffffffffffffff168473ffffffffffffffffffffffffffffffffffffffff16148061152c575061152b818561111a565b5b8061156a57508373ffffffffffffffffffffffffffffffffffffffff1661155284610613565b73ffffffffffffffffffffffffffffffffffffffff16145b91505092915050565b8273ffffffffffffffffffffffffffffffffffffffff1661159382610a4a565b73ffffffffffffffffffffffffffffffffffffffff16146115e9576040517f08c379a00000000000000000000000000000000000000000000000000000000081526004016115e09061349a565b60405180910390fd5b600073ffffffffffffffffffffffffffffffffffffffff168273ffffffffffffffffffffffffffffffffffffffff1603611658576040517f08c379a000000000000000000000000000000000000000000000000000000000815260040161164f9061352c565b60405180910390fd5b6116658383836001611ee1565b8273ffffffffffffffffffffffffffffffffffffffff1661168582610a4a565b73ffffffffffffffffffffffffffffffffffffffff16146116db576040517f08c379a00000000000000000000000000000000000000000000000000000000081526004016116d29061349a565b60405180910390fd5b6004600082815260200190815260200160002060006101000a81549073ffffffffffffffffffffffffffffffffffffffff02191690556001600360008573ffffffffffffffffffffffffffffffffffffffff1673ffffffffffffffffffffffffffffffffffffffff168152602001908152602001600020600082825403925050819055506001600360008473ffffffffffffffffffffffffffffffffffffffff1673ffffffffffffffffffffffffffffffffffffffff16815260200190815260200160002060008282540192505081905550816002600083815260200190815260200160002060006101000a81548173ffffffffffffffffffffffffffffffffffffffff021916908373ffffffffffffffffffffffffffffffffffffffff160217905550808273ffffffffffffffffffffffffffffffffffffffff168473ffffffffffffffffffffffffffffffffffffffff167fddf252ad1be2c89b69c2b068fc378daa952ba7f163c4a11628f55a4df523b3ef60405160405180910390a46118678383836001611ee7565b505050565b60006002600083815260200190815260200160002060009054906101000a900473ffffffffffffffffffffffffffffffffffffffff169050919050565b6000600760009054906101000a900473ffffffffffffffffffffffffffffffffffffffff16905081600760006101000a81548173ffffffffffffffffffffffffffffffffffffffff021916908373ffffffffffffffffffffffffffffffffffffffff1602179055508173ffffffffffffffffffffffffffffffffffffffff168173ffffffffffffffffffffffffffffffffffffffff167f8be0079c531659141344cd1fd0a4f28419497f9722a3daafe3b4186f6b6457e060405160405180910390a35050565b600073ffffffffffffffffffffffffffffffffffffffff168273ffffffffffffffffffffffffffffffffffffffff16036119de576040517f08c379a00000000000000000000000000000000000000000000000000000000081526004016119d590613598565b60405180910390fd5b6119e781611391565b15611a27576040517f08c379a0000000000000000000000000000000000000000000000000000000008152600401611a1e90613604565b60405180910390fd5b611a35600083836001611ee1565b611a3e81611391565b15611a7e576040517f08c379a0000000000000000000000000000000000000000000000000000000008152600401611a7590613604565b60405180910390fd5b6001600360008473ffffffffffffffffffffffffffffffffffffffff1673ffffffffffffffffffffffffffffffffffffffff16815260200190815260200160002060008282540192505081905550816002600083815260200190815260200160002060006101000a81548173ffffffffffffffffffffffffffffffffffffffff021916908373ffffffffffffffffffffffffffffffffffffffff160217905550808273ffffffffffffffffffffffffffffffffffffffff16600073ffffffffffffffffffffffffffffffffffffffff167fddf252ad1be2c89b69c2b068fc378daa952ba7f163c4a11628f55a4df523b3ef60405160405180910390a4611b88600083836001611ee7565b5050565b611b9582611391565b611bd4576040517f08c379a0000000000000000000000000000000000000000000000000000000008152600401611bcb90613696565b60405180910390fd5b80600660008481526020019081526020016000209081611bf491906131ac565b507ff8e1a15aba9398e019f0b49df1a4fde98ee17ae345cb5f6b5e2c27f5033e8ce782604051611c2491906127c2565b60405180910390a15050565b8173ffffffffffffffffffffffffffffffffffffffff168373ffffffffffffffffffffffffffffffffffffffff1603611c9e576040517f08c379a0000000000000000000000000000000000000000000000000000000008152600401611c9590613702565b60405180910390fd5b80600560008573ffffffffffffffffffffffffffffffffffffffff1673ffffffffffffffffffffffffffffffffffffffff16815260200190815260200160002060008473ffffffffffffffffffffffffffffffffffffffff1673ffffffffffffffffffffffffffffffffffffffff16815260200190815260200160002060006101000a81548160ff0219169083151502179055508173ffffffffffffffffffffffffffffffffffffffff168373ffffffffffffffffffffffffffffffffffffffff167f17307eab39ab6107e8899845ad3d59bd9653f200f220920489ca2b5937696c3183604051611d8f91906123a4565b60405180910390a3505050565b611da7848484611573565b611db384848484611eed565b611df2576040517f08c379a0000000000000000000000000000000000000000000000000000000008152600401611de990613794565b60405180910390fd5b50505050565b606060405180602001604052806000815250905090565b6060611e1a826113d2565b6000611e24611df8565b90506000815111611e445760405180602001604052806000815250611e6f565b80611e4e84612074565b604051602001611e5f929190613306565b6040516020818303038152906040525b915050919050565b60007f01ffc9a7000000000000000000000000000000000000000000000000000000007bffffffffffffffffffffffffffffffffffffffffffffffffffffffff1916827bffffffffffffffffffffffffffffffffffffffffffffffffffffffff1916149050919050565b50505050565b50505050565b6000611f0e8473ffffffffffffffffffffffffffffffffffffffff16612142565b15612067578373ffffffffffffffffffffffffffffffffffffffff1663150b7a02611f3761141d565b8786866040518563ffffffff1660e01b8152600401611f599493929190613809565b6020604051808303816000875af1925050508015611f9557506040513d601f19601f82011682018060405250810190611f92919061386a565b60015b612017573d8060008114611fc5576040519150601f19603f3d011682016040523d82523d6000602084013e611fca565b606091505b50600081510361200f576040517f08c379a000000000000000000000000000000000000000000000000000000000815260040161200690613794565b60405180910390fd5b805181602001fd5b63150b7a0260e01b7bffffffffffffffffffffffffffffffffffffffffffffffffffffffff1916817bffffffffffffffffffffffffffffffffffffffffffffffffffffffff19161491505061206c565b600190505b949350505050565b60606000600161208384612165565b01905060008167ffffffffffffffff8111156120a2576120a16127e7565b5b6040519080825280601f01601f1916602001820160405280156120d45781602001600182028036833780820191505090505b509050600082602001820190505b600115612137578080600190039150507f3031323334353637383961626364656600000000000000000000000000000000600a86061a8153600a858161212b5761212a613897565b5b049450600085036120e2575b819350505050919050565b6000808273ffffffffffffffffffffffffffffffffffffffff163b119050919050565b600080600090507a184f03e93ff9f4daa797ed6e38ed64bf6a1f01000000000000000083106121c3577a184f03e93ff9f4daa797ed6e38ed64bf6a1f01000000000000000083816121b9576121b8613897565b5b0492506040810190505b6d04ee2d6d415b85acef81000000008310612200576d04ee2d6d415b85acef810000000083816121f6576121f5613897565b5b0492506020810190505b662386f26fc10000831061222f57662386f26fc10000838161222557612224613897565b5b0492506010810190505b6305f5e1008310612258576305f5e100838161224e5761224d613897565b5b0492506008810190505b612710831061227d57612710838161227357612272613897565b5b0492506004810190505b606483106122a0576064838161229657612295613897565b5b0492506002810190505b600a83106122af576001810190505b80915050919050565b6040518060c0016040528060008152602001606081526020016060815260200160608152602001600081526020016000151581525090565b6000604051905090565b600080fd5b600080fd5b60007fffffffff0000000000000000000000000000000000000000000000000000000082169050919050565b61233981612304565b811461234457600080fd5b50565b60008135905061235681612330565b92915050565b600060208284031215612372576123716122fa565b5b600061238084828501612347565b91505092915050565b60008115159050919050565b61239e81612389565b82525050565b60006020820190506123b96000830184612395565b92915050565b6000819050919050565b6123d2816123bf565b81146123dd57600080fd5b50565b6000813590506123ef816123c9565b92915050565b60006020828403121561240b5761240a6122fa565b5b6000612419848285016123e0565b91505092915050565b600081519050919050565b600082825260208201905092915050565b60005b8381101561245c578082015181840152602081019050612441565b60008484015250505050565b6000601f19601f8301169050919050565b600061248482612422565b61248e818561242d565b935061249e81856020860161243e565b6124a781612468565b840191505092915050565b600060208201905081810360008301526124cc8184612479565b905092915050565b600073ffffffffffffffffffffffffffffffffffffffff82169050919050565b60006124ff826124d4565b9050919050565b61250f816124f4565b82525050565b600060208201905061252a6000830184612506565b92915050565b612539816124f4565b811461254457600080fd5b50565b60008135905061255681612530565b92915050565b60008060408385031215612573576125726122fa565b5b600061258185828601612547565b9250506020612592858286016123e0565b9150509250929050565b6125a5816123bf565b82525050565b600082825260208201905092915050565b60006125c782612422565b6125d181856125ab565b93506125e181856020860161243e565b6125ea81612468565b840191505092915050565b6125fe81612389565b82525050565b600060c08301600083015161261c600086018261259c565b506020830151848203602086015261263482826125bc565b9150506040830151848203604086015261264e82826125bc565b9150506060830151848203606086015261266882826125bc565b915050608083015161267d608086018261259c565b5060a083015161269060a08601826125f5565b508091505092915050565b600060208201905081810360008301526126b58184612604565b905092915050565b6000806000606084860312156126d6576126d56122fa565b5b60006126e486828701612547565b93505060206126f586828701612547565b9250506040612706868287016123e0565b9150509250925092565b612719816123bf565b82525050565b600060c0820190506127346000830189612710565b81810360208301526127468188612479565b9050818103604083015261275a8187612479565b9050818103606083015261276e8186612479565b905061277d6080830185612710565b61278a60a0830184612395565b979650505050505050565b6000602082840312156127ab576127aa6122fa565b5b60006127b984828501612547565b91505092915050565b60006020820190506127d76000830184612710565b92915050565b600080fd5b600080fd5b7f4e487b7100000000000000000000000000000000000000000000000000000000600052604160045260246000fd5b61281f82612468565b810181811067ffffffffffffffff8211171561283e5761283d6127e7565b5b80604052505050565b60006128516122f0565b905061285d8282612816565b919050565b600067ffffffffffffffff82111561287d5761287c6127e7565b5b61288682612468565b9050602081019050919050565b82818337600083830152505050565b60006128b56128b084612862565b612847565b9050828152602081018484840111156128d1576128d06127e2565b5b6128dc848285612893565b509392505050565b600082601f8301126128f9576128f86127dd565b5b81356129098482602086016128a2565b91505092915050565b6000806000806080858703121561292c5761292b6122fa565b5b600061293a87828801612547565b945050602085013567ffffffffffffffff81111561295b5761295a6122ff565b5b612967878288016128e4565b935050604085013567ffffffffffffffff811115612988576129876122ff565b5b612994878288016128e4565b925050606085013567ffffffffffffffff8111156129b5576129b46122ff565b5b6129c1878288016128e4565b91505092959194509250565b6129d681612389565b81146129e157600080fd5b50565b6000813590506129f3816129cd565b92915050565b60008060408385031215612a1057612a0f6122fa565b5b6000612a1e85828601612547565b9250506020612a2f858286016129e4565b9150509250929050565b600067ffffffffffffffff821115612a5457612a536127e7565b5b612a5d82612468565b9050602081019050919050565b6000612a7d612a7884612a39565b612847565b905082815260208101848484011115612a9957612a986127e2565b5b612aa4848285612893565b509392505050565b600082601f830112612ac157612ac06127dd565b5b8135612ad1848260208601612a6a565b91505092915050565b60008060008060808587031215612af457612af36122fa565b5b6000612b0287828801612547565b9450506020612b1387828801612547565b9350506040612b24878288016123e0565b925050606085013567ffffffffffffffff811115612b4557612b446122ff565b5b612b5187828801612aac565b91505092959194509250565b60008060408385031215612b7457612b736122fa565b5b6000612b8285828601612547565b9250506020612b9385828601612547565b9150509250929050565b7f436572746966696361746520646f6573206e6f74206578697374000000000000600082015250565b6000612bd3601a8361242d565b9150612bde82612b9d565b602082019050919050565b60006020820190508181036000830152612c0281612bc6565b9050919050565b7f436572746966696361746520616c7265616479207265766f6b65640000000000600082015250565b6000612c3f601b8361242d565b9150612c4a82612c09565b602082019050919050565b60006020820190508181036000830152612c6e81612c32565b9050919050565b7f4e487b7100000000000000000000000000000000000000000000000000000000600052602260045260246000fd5b60006002820490506001821680612cbc57607f821691505b602082108103612ccf57612cce612c75565b5b50919050565b7f4552433732313a20617070726f76616c20746f2063757272656e74206f776e6560008201527f7200000000000000000000000000000000000000000000000000000000000000602082015250565b6000612d3160218361242d565b9150612d3c82612cd5565b604082019050919050565b60006020820190508181036000830152612d6081612d24565b9050919050565b7f4552433732313a20617070726f76652063616c6c6572206973206e6f7420746f60008201527f6b656e206f776e6572206f7220617070726f76656420666f7220616c6c000000602082015250565b6000612dc3603d8361242d565b9150612dce82612d67565b604082019050919050565b60006020820190508181036000830152612df281612db6565b9050919050565b7f4552433732313a2063616c6c6572206973206e6f7420746f6b656e206f776e6560008201527f72206f7220617070726f76656400000000000000000000000000000000000000602082015250565b6000612e55602d8361242d565b9150612e6082612df9565b604082019050919050565b60006020820190508181036000830152612e8481612e48565b9050919050565b7f4552433732313a20696e76616c696420746f6b656e2049440000000000000000600082015250565b6000612ec160188361242d565b9150612ecc82612e8b565b602082019050919050565b60006020820190508181036000830152612ef081612eb4565b9050919050565b7f4552433732313a2061646472657373207a65726f206973206e6f74206120766160008201527f6c6964206f776e65720000000000000000000000000000000000000000000000602082015250565b6000612f5360298361242d565b9150612f5e82612ef7565b604082019050919050565b60006020820190508181036000830152612f8281612f46565b9050919050565b7f4e487b7100000000000000000000000000000000000000000000000000000000600052601160045260246000fd5b6000612fc3826123bf565b91507fffffffffffffffffffffffffffffffffffffffffffffffffffffffffffffffff8203612ff557612ff4612f89565b5b600182019050919050565b60008190508160005260206000209050919050565b60006020601f8301049050919050565b600082821b905092915050565b6000600883026130627fffffffffffffffffffffffffffffffffffffffffffffffffffffffffffffffff82613025565b61306c8683613025565b95508019841693508086168417925050509392505050565b6000819050919050565b60006130a96130a461309f846123bf565b613084565b6123bf565b9050919050565b6000819050919050565b6130c38361308e565b6130d76130cf826130b0565b848454613032565b825550505050565b600090565b6130ec6130df565b6130f78184846130ba565b505050565b5b8181101561311b576131106000826130e4565b6001810190506130fd565b5050565b601f8211156131605761313181613000565b61313a84613015565b81016020851015613149578190505b61315d61315585613015565b8301826130fc565b50505b505050565b600082821c905092915050565b600061318360001984600802613165565b1980831691505092915050565b600061319c8383613172565b9150826002028217905092915050565b6131b582612422565b67ffffffffffffffff8111156131ce576131cd6127e7565b5b6131d88254612ca4565b6131e382828561311f565b600060209050601f8311600181146132165760008415613204578287015190505b61320e8582613190565b865550613276565b601f19841661322486613000565b60005b8281101561324c57848901518255600182019150602085019450602081019050613227565b868310156132695784890151613265601f891682613172565b8355505b6001600288020188555050505b505050505050565b600060608201905081810360008301526132988186612479565b905081810360208301526132ac8185612479565b905081810360408301526132c08184612479565b9050949350505050565b600081905092915050565b60006132e082612422565b6132ea81856132ca565b93506132fa81856020860161243e565b80840191505092915050565b600061331282856132d5565b915061331e82846132d5565b91508190509392505050565b7f4f776e61626c653a206e6577206f776e657220697320746865207a65726f206160008201527f6464726573730000000000000000000000000000000000000000000000000000602082015250565b600061338660268361242d565b91506133918261332a565b604082019050919050565b600060208201905081810360008301526133b581613379565b9050919050565b7f4f776e61626c653a2063616c6c6572206973206e6f7420746865206f776e6572600082015250565b60006133f260208361242d565b91506133fd826133bc565b602082019050919050565b60006020820190508181036000830152613421816133e5565b9050919050565b7f4552433732313a207472616e736665722066726f6d20696e636f72726563742060008201527f6f776e6572000000000000000000000000000000000000000000000000000000602082015250565b600061348460258361242d565b915061348f82613428565b604082019050919050565b600060208201905081810360008301526134b381613477565b9050919050565b7f4552433732313a207472616e7366657220746f20746865207a65726f2061646460008201527f7265737300000000000000000000000000000000000000000000000000000000602082015250565b600061351660248361242d565b9150613521826134ba565b604082019050919050565b6000602082019050818103600083015261354581613509565b9050919050565b7f4552433732313a206d696e7420746f20746865207a65726f2061646472657373600082015250565b600061358260208361242d565b915061358d8261354c565b602082019050919050565b600060208201905081810360008301526135b181613575565b9050919050565b7f4552433732313a20746f6b656e20616c7265616479206d696e74656400000000600082015250565b60006135ee601c8361242d565b91506135f9826135b8565b602082019050919050565b6000602082019050818103600083015261361d816135e1565b9050919050565b7f45524337323155524953746f726167653a2055524920736574206f66206e6f6e60008201527f6578697374656e7420746f6b656e000000000000000000000000000000000000602082015250565b6000613680602e8361242d565b915061368b82613624565b604082019050919050565b600060208201905081810360008301526136af81613673565b9050919050565b7f4552433732313a20617070726f766520746f2063616c6c657200000000000000600082015250565b60006136ec60198361242d565b91506136f7826136b6565b602082019050919050565b6000602082019050818103600083015261371b816136df565b9050919050565b7f4552433732313a207472616e7366657220746f206e6f6e20455243373231526560008201527f63656976657220696d706c656d656e7465720000000000000000000000000000602082015250565b600061377e60328361242d565b915061378982613722565b604082019050919050565b600060208201905081810360008301526137ad81613771565b9050919050565b600081519050919050565b600082825260208201905092915050565b60006137db826137b4565b6137e581856137bf565b93506137f581856020860161243e565b6137fe81612468565b840191505092915050565b600060808201905061381e6000830187612506565b61382b6020830186612506565b6138386040830185612710565b818103606083015261384a81846137d0565b905095945050505050565b60008151905061386481612330565b92915050565b6000602082840312156138805761387f6122fa565b5b600061388e84828501613855565b91505092915050565b7f4e487b7100000000000000000000000000000000000000000000000000000000600052601260045260246000fdfea26469706673582212204cf17d47250f60668a234dffffad10b013aba5129a74bdfca2925b51bf05b35b64736f6c634300081c0033",
  "linkReferences": {},
  "deployedLinkReferences": {}
}