{
  "_format": "hh-sol-artifact-1",
  "contractName": "CertificateRegistry",
  "sourceName": "contracts/Certificate.sol",
  "abi": [
    {
      "anonymous": false,
      "inputs": [
        {
          "indexed": false,
          "internalType": "uint256",
          "name": "certId",
          "type": "uint256"
        },
        {
          "indexed": false,
          "internalType": "string",
          "name": "studentName",
          "type": "string"
        },
        {
          "indexed": false,
          "internalType": "string",
          "name": "eventId",
          "type": "string"
        },
        {
          "indexed": false,
          "internalType": "string",
          "name": "ipfsHash",
          "type": "string"
        },
        {
          "indexed": false,
          "internalType": "address",
          "name": "issuedTo",
          "type": "address"
        }
      ],
      "name": "CertificateIssued",
      "type": "event"
    },
    {
      "inputs": [
        {
          "internalType": "uint256",
          "name": "",
          "type": "uint256"
        }
      ],
      "name": "certificates",
      "outputs": [
        {
          "internalType": "uint256",
          "name": "certId",
          "type": "uint256"
        },
        {
          "internalType": "string",
          "name": "studentName",
          "type": "string"
        },
        {
          "internalType": "string",
          "name": "eventId",
          "type": "string"
        },
        {
          "internalType": "string",
          "name": "ipfsHash",
          "type": "string"
        },
        {
          "internalType": "address",
          "name": "issuedTo",
          "type": "address"
        },
        {
          "internalType": "uint256",
          "name": "issuedAt",
          "type": "uint256"
        }
      ],
      "stateMutability": "view",
      "type": "function"
    },
    {
      "inputs": [
        {
          "internalType": "string",
          "name": "_studentName",
          "type": "string"
        },
        {
          "internalType": "string",
          "name": "_eventId",
          "type": "string"
        },
        {
          "internalType": "string",
          "name": "_ipfsHash",
          "type": "string"
        },
        {
          "internalType": "address",
          "name": "_issuedTo",
          "type": "address"
        }
      ],
      "name": "issueCertificate",
      "outputs": [
        {
          "internalType": "uint256",
          "name": "",
          "type": "uint256"
        }
      ],
      "stateMutability": "nonpayable",
      "type": "function"
    },
    {
      "inputs": [],
      "name": "nextCertId",
      "outputs": [
        {
          "internalType": "uint256",
          "name": "",
          "type": "uint256"
        }
      ],
      "stateMutability": "view",
      "type": "function"
    },
    {
      "inputs": [
        {
          "internalType": "uint256",
          "name": "_certId",
          "type": "uint256"
        }
      ],
      "name": "verifyCertificate",
      "outputs": [
        {
          "components": [
            {
              "internalType": "uint256",
              "name": "certId",
              "type": "uint256"
            },
            {
              "internalType": "string",
              "name": "studentName",
              "type": "string"
            },
            {
              "internalType": "string",
              "name": "eventId",
              "type": "string"
            },
            {
              "internalType": "string",
              "name": "ipfsHash",
              "type": "string"
            },
            {
              "internalType": "address",
              "name": "issuedTo",
              "type": "address"
            },
            {
              "internalType": "uint256",
              "name": "issuedAt",
              "type": "uint256"
            }
          ],
          "internalType": "struct CertificateRegistry.Certificate",
          "name": "",
          "type": "tuple"
        }
      ],
      "stateMutability": "view",
      "type": "function"
    }
  ],
  "bytecode": "0x608060405234801561001057600080fd5b5061100e806100206000396000f3fe608060405234801561001057600080fd5b506004361061004c5760003560e01c80631692a942146100515780632a8e6a8e14610081578063663b3e221461009f578063b898c86f146100d4575b600080fd5b61006b60048036038101906100669190610740565b610104565b60405161007891906108e4565b60405180910390f35b610089610350565b6040516100969190610915565b60405180910390f35b6100b960048036038101906100b49190610740565b610356565b6040516100cb96959493929190610989565b60405180910390f35b6100ee60048036038101906100e99190610b60565b61054a565b6040516100fb9190610915565b60405180910390f35b61010c6106aa565b6000808381526020019081526020016000206040518060c00160405290816000820154815260200160018201805461014390610c4a565b80601f016020809104026020016040519081016040528092919081815260200182805461016f90610c4a565b80156101bc5780601f10610191576101008083540402835291602001916101bc565b820191906000526020600020905b81548152906001019060200180831161019f57829003601f168201915b505050505081526020016002820180546101d590610c4a565b80601f016020809104026020016040519081016040528092919081815260200182805461020190610c4a565b801561024e5780601f106102235761010080835404028352916020019161024e565b820191906000526020600020905b81548152906001019060200180831161023157829003601f168201915b5050505050815260200160038201805461026790610c4a565b80601f016020809104026020016040519081016040528092919081815260200182805461029390610c4a565b80156102e05780601f106102b5576101008083540402835291602001916102e0565b820191906000526020600020905b8154815290600101906020018083116102c357829003601f168201915b505050505081526020016004820160009054906101000a900473ffffffffffffffffffffffffffffffffffffffff1673ffffffffffffffffffffffffffffffffffffffff1673ffffffffffffffffffffffffffffffffffffffff1681526020016005820154815250509050919050565b60015481565b600060205280600052604060002060009150905080600001549080600101805461037f90610c4a565b80601f01602080910402602001604051908101604052809291908181526020018280546103ab90610c4a565b80156103f85780601f106103cd576101008083540402835291602001916103f8565b820191906000526020600020905b8154815290600101906020018083116103db57829003601f168201915b50505050509080600201805461040d90610c4a565b80601f016020809104026020016040519081016040528092919081815260200182805461043990610c4a565b80156104865780601f1061045b57610100808354040283529160200191610486565b820191906000526020600020905b81548152906001019060200180831161046957829003601f168201915b50505050509080600301805461049b90610c4a565b80601f01602080910402602001604051908101604052809291908181526020018280546104c790610c4a565b80156105145780601f106104e957610100808354040283529160200191610514565b820191906000526020600020905b8154815290600101906020018083116104f757829003601f168201915b5050505050908060040160009054906101000a900473ffffffffffffffffffffffffffffffffffffffff16908060050154905086565b60008060015490506040518060c001604052808281526020018781526020018681526020018581526020018473ffffffffffffffffffffffffffffffffffffffff168152602001428152506000808381526020019081526020016000206000820151816000015560208201518160010190816105c69190610e27565b5060408201518160020190816105dc9190610e27565b5060608201518160030190816105f29190610e27565b5060808201518160040160006101000a81548173ffffffffffffffffffffffffffffffffffffffff021916908373ffffffffffffffffffffffffffffffffffffffff16021790555060a082015181600501559050506001600081548092919061065a90610f28565b91905055507f1de74ad78994adcce83ed5cecc8c14ced778f7b14e511a8bf916072c8bd3221b8187878787604051610696959493929190610f70565b60405180910390a180915050949350505050565b6040518060c0016040528060008152602001606081526020016060815260200160608152602001600073ffffffffffffffffffffffffffffffffffffffff168152602001600081525090565b6000604051905090565b600080fd5b600080fd5b6000819050919050565b61071d8161070a565b811461072857600080fd5b50565b60008135905061073a81610714565b92915050565b60006020828403121561075657610755610700565b5b60006107648482850161072b565b91505092915050565b6107768161070a565b82525050565b600081519050919050565b600082825260208201905092915050565b60005b838110156107b657808201518184015260208101905061079b565b60008484015250505050565b6000601f19601f8301169050919050565b60006107de8261077c565b6107e88185610787565b93506107f8818560208601610798565b610801816107c2565b840191505092915050565b600073ffffffffffffffffffffffffffffffffffffffff82169050919050565b60006108378261080c565b9050919050565b6108478161082c565b82525050565b600060c083016000830151610865600086018261076d565b506020830151848203602086015261087d82826107d3565b9150506040830151848203604086015261089782826107d3565b915050606083015184820360608601526108b182826107d3565b91505060808301516108c6608086018261083e565b5060a08301516108d960a086018261076d565b508091505092915050565b600060208201905081810360008301526108fe818461084d565b905092915050565b61090f8161070a565b82525050565b600060208201905061092a6000830184610906565b92915050565b600082825260208201905092915050565b600061094c8261077c565b6109568185610930565b9350610966818560208601610798565b61096f816107c2565b840191505092915050565b6109838161082c565b82525050565b600060c08201905061099e6000830189610906565b81810360208301526109b08188610941565b905081810360408301526109c48187610941565b905081810360608301526109d88186610941565b90506109e7608083018561097a565b6109f460a0830184610906565b979650505050505050565b600080fd5b600080fd5b7f4e487b7100000000000000000000000000000000000000000000000000000000600052604160045260246000fd5b610a41826107c2565b810181811067ffffffffffffffff82111715610a6057610a5f610a09565b5b80604052505050565b6000610a736106f6565b9050610a7f8282610a38565b919050565b600067ffffffffffffffff821115610a9f57610a9e610a09565b5b610aa8826107c2565b9050602081019050919050565b82818337600083830152505050565b6000610ad7610ad284610a84565b610a69565b905082815260208101848484011115610af357610af2610a04565b5b610afe848285610ab5565b509392505050565b600082601f830112610b1b57610b1a6109ff565b5b8135610b2b848260208601610ac4565b91505092915050565b610b3d8161082c565b8114610b4857600080fd5b50565b600081359050610b5a81610b34565b92915050565b60008060008060808587031215610b7a57610b79610700565b5b600085013567ffffffffffffffff811115610b9857610b97610705565b5b610ba487828801610b06565b945050602085013567ffffffffffffffff811115610bc557610bc4610705565b5b610bd187828801610b06565b935050604085013567ffffffffffffffff811115610bf257610bf1610705565b5b610bfe87828801610b06565b9250506060610c0f87828801610b4b565b91505092959194509250565b7f4e487b7100000000000000000000000000000000000000000000000000000000600052602260045260246000fd5b60006002820490506001821680610c6257607f821691505b602082108103610c7557610c74610c1b565b5b50919050565b60008190508160005260206000209050919050565b60006020601f8301049050919050565b600082821b905092915050565b600060088302610cdd7fffffffffffffffffffffffffffffffffffffffffffffffffffffffffffffffff82610ca0565b610ce78683610ca0565b95508019841693508086168417925050509392505050565b6000819050919050565b6000610d24610d1f610d1a8461070a565b610cff565b61070a565b9050919050565b6000819050919050565b610d3e83610d09565b610d52610d4a82610d2b565b848454610cad565b825550505050565b600090565b610d67610d5a565b610d72818484610d35565b505050565b5b81811015610d9657610d8b600082610d5f565b600181019050610d78565b5050565b601f821115610ddb57610dac81610c7b565b610db584610c90565b81016020851015610dc4578190505b610dd8610dd085610c90565b830182610d77565b50505b505050565b600082821c905092915050565b6000610dfe60001984600802610de0565b1980831691505092915050565b6000610e178383610ded565b9150826002028217905092915050565b610e308261077c565b67ffffffffffffffff811115610e4957610e48610a09565b5b610e538254610c4a565b610e5e828285610d9a565b600060209050601f831160018114610e915760008415610e7f578287015190505b610e898582610e0b565b865550610ef1565b601f198416610e9f86610c7b565b60005b82811015610ec757848901518255600182019150602085019450602081019050610ea2565b86831015610ee45784890151610ee0601f891682610ded565b8355505b6001600288020188555050505b505050505050565b7f4e487b7100000000000000000000000000000000000000000000000000000000600052601160045260246000fd5b6000610f338261070a565b91507fffffffffffffffffffffffffffffffffffffffffffffffffffffffffffffffff8203610f6557610f64610ef9565b5b600182019050919050565b600060a082019050610f856000830188610906565b8181036020830152610f978187610941565b90508181036040830152610fab8186610941565b90508181036060830152610fbf8185610941565b9050610fce608083018461097a565b969550505050505056fea2646970667358221220ef9c98d2ab25cf7365e5bb9e5621d6f1c6ab377cb09e25271bd5b259ff70f00a64736f6c63430008140033",
  "linkReferences": {},
  "deployedLinkReferences": {}
}